:020000040040BA
:10000000F0DB4320B97A4300697B4300697B4300FE
:10001000697B4300697B4300697B4300000000006B
:10002000000000000000000000000000B11F4000C0
:10003000697B43000000000081214000E92140006D
:10004000697B4300697B4300697B43000183430074
:10005000697B4300697B4300697B4300697B430004
:10006000697B43000000000099714300B1714300B7
:10007000C9714300697B4300CD834300697B430022
:10008000E1714300F9714300697B4300697B4300E0
:10009000697B4300697B4300697B4300697B4300C4
:1000A000697B4300697B4300697B4300697B4300B4
:1000B000697B4300851D4000697B4300697B4300E9
:1000C000697B4300697B4300697B4300697B430094
:1000D000697B4300697B4300697B4300697B430084
:1000E000991D4000697B4300697B4300697B4300A5
:1000F000697B4300697B4300697B4300697B430064
:10010000697B4300697B4300697B4300697B430053
:10011000697B4300000000000000000000000000B8
:10012000697B4300697B4300697B4300697B430033
:10013000697B4300697B4300697B4300697B430023
:10014000697B4300697B4300697B4300697B430013
:10015000697B4300697B4300697B4300697B430003
:10016000697B4300697B430010B5054C237833B9A4
:10017000044B13B10448AFF300800123237010BD7A
:10018000880A402000000000447445000C4B43B135
:100190000C480D4910B5AFF300800C48036823B933
:1001A00010BD0A48036833B97047094B002BF7D0DC
:1001B000BDE810401847064B002BF5D0184700BF8C
:1001C00000000000447445008C0A4020447445003F
:1001D0000000000082B001900B46ADF80230BDF87F
:1001E0000220054B1B68134343F48022019B1A60D5
:1001F0000023184602B07047A40A402082B0019044
:100200000B468DF803309DF80330002B0DD00F4BBB
:100210001B6843F080730D4A1360019B1A680B4BF7
:100220001B681A43019B1A600CE0084B1B6823F003
:100230008073064A1360019B1A68044B1B681A43BB
:10024000019B1A6000BF02B0704700BFA40A4020A3
:1002500084B001900091019B1B680393039A009B5B
:1002600013430393054B1B68039A13430393019BAA
:10027000039A1A6000BF04B0704700BFA40A402070
:1002800084B00190009100230393019B1B680393AA
:10029000009BDB43039A13400393054B1B68039AAF
:1002A00013430393019B039A1A6000BF04B0704785
:1002B000A40A402084B00190019B9B68039302E054
:1002C000019B9B680393019B9A68039B9A42F7D119
:1002D000039B184604B0704782B00190019BDB6815
:1002E000184602B07047000000B585B0019000913B
:1002F000019B1B6803F4803303934FF480310E4855
:100300000E4B9847009B002B04D1019B4FF0FF320E
:100310005A6003E0009B5A1E019B5A60039B002B0E
:1003200004D04FF480310448054B98470023184609
:1003300005B05DF804FB00BF30180E40810240009C
:100340005102400082B001900B46ADF8023000BF70
:1003500002B0704784B001900B468DF80330019BCA
:100360005B6803939DF80330FF2B04D1039B43F09C
:100370008003039308E0039B23F08F0303939DF80E
:100380000330039A13430393019B039A5A6000BFFF
:1003900004B0704700B583B001900B46ADF8023051
:1003A000BDF8023040F6FF72934205D0BDF802302E
:1003B000194601980B4B9847BDF8023040F6FF7282
:1003C000934206D0BDF80230012202FA03F31A4626
:1003D00001E040F6FF72019B5A6100BF03B05DF877
:1003E00004FB00BF4503400000B583B001900B46FD
:1003F000ADF80230BDF8023040F6FF72934205D0EE
:10040000BDF80230194601980B4B9847BDF80230F1
:1004100040F6FF72934206D0BDF80230012202FA84
:1004200003F31A4601E040F6FF72019B9A6100BF98
:1004300003B05DF804FB00BF4503400000B583B086
:1004400001900B46ADF80230BDF802301946019814
:10045000054B9847BDF80220019B5A66019B9B6E95
:10046000184603B05DF804FB4503400000B583B0B7
:1004700001900B46ADF802301346ADF80030BDF8E0
:10048000023019460198084B9847BDF80220019B9D
:100490005A66BDF80030C3F30B02019BDA6600BF59
:1004A00003B05DF804FB00BF4503400082B001903B
:1004B000019B072B25D801A252F823F0DD04400050
:1004C000E3044000E9044000EF044000F30440006E
:1004D000F7044000FB044000FF0440004FF4FA43DF
:1004E00010E04FF400430DE04FF400430AE0074BE7
:1004F00008E0074B06E0074B04E0064B02E0054B23
:1005000000E00023184602B0704700BF00093D001C
:1005100000127A00001BB70008B50620044B98476C
:10052000024613469B0013449A001344184608BD24
:10053000AD04400008B5024B98470346184608BD75
:100540001905400000B58DB003900291019200930F
:1005500006AB1846154B984706AB19460398144B43
:100560009847FF210398134B984705AB1846124B49
:10057000984700238DF81530019B9BB205AA1946B8
:1005800003980E4B9847019B9BB24FF4007219469B
:1005900003980B4B9847019B9BB219460398094B54
:1005A000984700BF0DB05DF804FB00BF811B400001
:1005B000F91B400055034000E11B4000E51A4000D4
:1005C0006D0440009503400010B50C200F4B984778
:1005D00010200E4B98470C200C4B984710200B4BCB
:1005E00098470B480B4B98470B480A4B98470023FA
:1005F00000221D210848094CA04700230122282180
:100600000348064CA04700BF10BD00BF6D744300F7
:1006100000400640AD1D400000C0034045054000BD
:1006200008B500210248034B98470346184608BD09
:1006300000C003403D04400008B501210248034BBF
:1006400098470346184608BD004006403D04400058
:1006500070B500212648274B984701212648274B93
:10066000984700234FF400224FF060512448254C56
:10067000A04700234FF400524FF040512048214C36
:10068000A04700234FF400624FF020511E481D4C3C
:10069000A04700234FF080424FF020511A48194CD8
:1006A000A0471A4B9847034619464FF000020B46E5
:1006B0001446A60046EA93769D002B4634465B1806
:1006C00044EB020441F22B714FF000025D1844EB41
:1006D0000206284631460E4C41F22C724FF00003C0
:1006E000A04703460C4618460A4B984700BF70BD0A
:1006F00000C003409503400000400640E90340006D
:1007000000120E40F96D430000140E403505400004
:10071000019743000100402070B500212648274B77
:10072000984701212648274B984700234FF08042E5
:100730004FF060512448254CA04700234FF400623D
:100740004FF040512048214CA04700234FF4002295
:100750004FF020511E481D4CA04700234FF400527B
:100760004FF020511A48194CA0471A4B984703469E
:1007700019464FF000020B461446A60046EA93764F
:100780009D002B4634465B1844EB020441F22B716A
:100790004FF000025D1844EB0206284631460E4C2D
:1007A00041F22C724FF00003A04703460C46184656
:1007B0000A4B984700BF70BD00C00340E9034000EA
:1007C000004006409503400000140E40F96D4300C0
:1007D00000120E4035054000019743000100402003
:1007E00070B586B0019000234FF400224FF04051C5
:1007F0004F48504CA04700234FF400624FF0605127
:100800004D484C4CA04700234FF080424FF0205100
:100810004948484CA04700234FF400524FF0205164
:100820004348444CA04700214448454B9847012188
:100830004448434B9847444B9847034619464FF06A
:1008400000020B461446A60046EA93769D002B460E
:1008500034465B1844EB020441F22B714FF0000266
:100860005D1844EB020628463146384C41F22C72A2
:100870004FF00003A04703460C461846344B9847F8
:10088000344B98470490344B98470390334B984728
:10089000304B98470290039B07EE903AF8EEE77AC8
:1008A000CDED057A049B07EE903AB8EEE77ADDEDE0
:1008B000056AC6EE877ACDED057ADDED057AB7EEED
:1008C000007A77EEC77ACDED057A029B07EE903A73
:1008D000F8EEE77A9DED057A67EE277ACDED057A99
:1008E000019B07EE903AF8EEE77A9DED057A67EE08
:1008F000277ACDED057A9DED057ADFED196AC7EE11
:10090000267ACDED057ADDED057A9FED167AF4EEC7
:10091000C77AF1EE10FA02D54FF089430593DDED69
:10092000057AFDEEE77A17EE903A184606B070BDEC
:1009300000120E40F96D430000140E4000C0034049
:1009400095034000004006403505400001974300F4
:1009500001004020390640002106400051064000B9
:10096000000080440000C84208B5024B9847034687
:10097000184608BD2106400008B5024B98470346BB
:10098000184608BD3906400086B001900B468DF828
:1009900003300123049337E0049B9B00019A134426
:1009A0001B680393049B8DF8173013E09DF81730F4
:1009B0009B00019A1A449DF817106FF040430B44B6
:1009C0009B0001990B441B6813609DF81730013B95
:1009D0008DF817309DF81730002B0BD09DF817209D
:1009E0006FF0404313449B00019A13441A68039B21
:1009F0009A42DBDC9DF817309B00019A1344039A5E
:100A00001A60049B013304939DF80320049B9A42CF
:100A1000C2DC00BF06B070472DE91048C9B003AB77
:100A2000186002AB196001AB1A6000238DF8173112
:100A30002E4B98470023479321E02D4B98470346C0
:100A40004FF000042B494FF0000213EB010B44EB75
:100A5000020C58466146284C284A4FF00003A04734
:100A600003460C461846264B9847264B98470146A6
:100A700005AB479A43F82210479B01334793479BA6
:100A80003F2BDADD05AB402118461F4B984705ABDD
:100A9000D3F8802003AB1B681A601C4B98470023D7
:100AA000469309E01A4B9847014605AB469A43F82E
:100AB0002210469B01334693469B3F2BF2DD05AB4C
:100AC00040211846104B984705ABD3F8802002AB65
:100AD0001B681A604FF496700E4B9847024601ABA4
:100AE0001B681A6000BF49B0BDE81088510640007D
:100AF00035054000DF835A0001974300E0835A0028
:100B000001004020690940008909400019074000A0
:100B100079094000E107400086B0039002910192FC
:100B20000093039BA3F2EE2213461B019B1A1B01A9
:100B3000204A82FB03121A44D212DB17D31A059300
:100B4000059BF02B01DDF0230593059B002B01DABB
:100B500000230593069B059A1A60029BA3F51B725E
:100B600013461B069B1A9B009B1A9B01124A82FB91
:100B700003121A44D212DB17D31A03F5A07304939D
:100B8000049BB3F5A07F02DD4FF4A0730493049B94
:100B9000002B01DA00230493009B049A1A60019B46
:100BA000B3F5487F01DA012300E00023184606B0C0
:100BB000704700BF35679ACD1FC297BC10B588B08B
:100BC0000390029105AA06A907AB1846064B984761
:100BD00007980699059A029B0093039B034CA04734
:100BE0000346184608B010BD190A4000190B400012
:100BF00082B00190019B072B25D801A252F823F067
:100C0000210C4000270C40002D0C4000330C40000C
:100C1000370C40003B0C40003F0C4000430C4000B0
:100C20004FF4FA4310E04FF400430DE04FF400435B
:100C30000AE0074B08E0074B06E0074B04E0064BD1
:100C400002E0054B00E00023184602B0704700BFE9
:100C500000093D0000127A00001BB70008B506200D
:100C6000044B9847024613469B0013449A001344D2
:100C7000184608BDF10B400008B5024B98470346E3
:100C8000184608BD5D0C40008AB001900B468DF8F7
:100C90000330019B09939DF803308DF82330099BA5
:100CA0000793079B0693069B5B090593059A0F4BD9
:100CB00013445B0204939DF82330002B09D0099B59
:100CC0000393039B03F01F0301229A40049B1A63C2
:100CD00008E0099B0293029B03F01F0301229A4044
:100CE000049B5A6300BF0AB0704700BF070720008B
:100CF00082B00190019B01221A6000BF02B07047D0
:100D000082B001900B46ADF80230BDF80220019B85
:100D1000DA6000BF02B0704782B00190019B1B698E
:100D200003F40073002B01D0012300E000231846D8
:100D300002B0704700B583B001900B468DF80330C8
:100D40009DF803309BB219460198034B984700BFAA
:100D500003B05DF804FB00BF010D400000B585B095
:100D600003468DF8073000210620124B98470021DA
:100D70007B20104B98479DF807308DF80F300E48B8
:100D80000E4B98470346002BF9D09DF80F301946BB
:100D900009480B4B98470848084B98470346002BD7
:100DA000F9D001210620034B984700BF05B05DF83C
:100DB00004FB00BF890C400000800040190D40007A
:100DC000350D400000B585B003468DF807302A2068
:100DD0005E4B98475E4BB3F900301B121BB2DBB27F
:100DE0008DF80E305B485C4B98470346002BF9D0DA
:100DF0009DF80E3019465748584B9847544BB3F955
:100E00000030DBB28DF80F305248534B9847034601
:100E1000002BF9D09DF80F3019464E484F4B98479C
:100E20009DF80730002B25D04D4BB3F900301B1235
:100E30001BB2DBB28DF80C304648474B984703464F
:100E4000002BF9D09DF80C3019464248434B984787
:100E5000434BB3F90030DBB28DF80D303D483E4BCB
:100E600098470346002BF9D09DF80D3019463948B4
:100E70003A4B98473748384B98470346002BF9D0F0
:100E800001217B20374B98472B20304B9847364B1E
:100E9000B3F900301B121BB2DBB28DF80A302D48BB
:100EA0002D4B98470346002BF9D09DF80A30194680
:100EB00028482A4B98472C4BB3F90030DBB28DF809
:100EC0000B302448244B98470346002BF9D09DF85B
:100ED0000B3019461F48214B98479DF80730002BCF
:100EE00025D0224BB3F900301B121BB2DBB28DF8B8
:100EF00008301848184B98470346002BF9D09DF846
:100F0000083019461348154B9847184BB3F9003071
:100F1000DBB28DF809300F480F4B98470346002B82
:100F2000F9D09DF8093019460A480C4B98470948F2
:100F3000094B98470346002BF9D001217B20094B30
:100F4000984700BF05B05DF804FB00BF5D0D400091
:100F5000A80A402000800040190D4000350D4000D7
:100F6000AC0A4020890C4000AA0A4020AE0A40206A
:100F700000B583B003460A46ADF806301346ADF817
:100F80000430074ABDF806301380064ABDF8043025
:100F900013800020044B984700BF03B05DF804FBAA
:100FA000A80A4020AA0A4020C50D400000B583B021
:100FB00003460A46ADF806301346ADF80430074A3A
:100FC000BDF806301380064ABDF8043013800120B6
:100FD000044B984700BF03B05DF804FBAC0A402007
:100FE000AE0A4020C50D400010B582B00446084648
:100FF00011461A462346ADF806300346ADF80430D4
:101000000B46ADF802301346ADF800300A4ABDF881
:1010100006301380094ABDF804301380084ABDF831
:1010200002301380074ABDF8003013800120064BC0
:10103000984700BF02B010BDA80A4020AA0A40206D
:10104000AC0A4020AE0A4020C50D400000B585B076
:1010500001900091019B03932C201E4B984726E0A2
:10106000039B1B88DBB28DF80A301B481B4B98474B
:101070000346002BF9D09DF80A3019461648184B44
:101080009847039B1B881B0A9BB2DBB28DF80B3081
:101090001148124B98470346002BF9D09DF80B30AE
:1010A00019460D480E4B9847039B02330393009B50
:1010B0005A1E0092002BD3D10748084B984703468D
:1010C000002BF9D001217B20064B984700BF05B0CB
:1010D0005DF804FB5D0D400000800040190D4000EC
:1010E000350D4000890C40002DE9F04186B0002309
:1010F0008DF8173000230493032303932C482D4BC2
:1011000098479DF8172003A9049B00932A4B284871
:101110002A4CA047002203212548294B9847244800
:10112000284B984703AB19462148274B9847F02195
:101130001F48264B984701211D48244B9847244BB4
:101140009847034619464FF000020B4614464FEAF3
:10115000840848EA93789F003B4644465B1844EB7A
:101160000204260146EA13761D01ED1A66EB040619
:101170006B1946EB06041D4626462946324641F2C7
:101180002B734FF00004CD1842EB0406284631467D
:10119000104C41F22C724FF00003A04703460C465E
:1011A00018460D4B984700BF06B0BDE8F08100BF60
:1011B0000080004071634300005A6202DD63430017
:1011C000C9754300F10C400095644300350D4000A3
:1011D000790C4000019743000100402010B586B013
:1011E000CD20A84B984739238DF80430A648A74B4B
:1011F00098470346002BF9D09DF804301946A248C1
:10120000A34B98472C238DF805309F489F4B984758
:101210000346002BF9D09DF8053019469A489C4B9F
:10122000984700238DF806309748984B9847034617
:10123000002BF9D09DF8063019469348944B9847F7
:1012400034238DF807309048904B98470346002B85
:10125000F9D09DF8073019468B488D4B98470223EB
:101260008DF808308848894B98470346002BF9D001
:101270009DF8083019468448854B98478248834B2F
:1012800098470346002BF9D001217B20814B9847DA
:10129000CF207C4B984700238DF809307A487B4B50
:1012A00098470346002BF9D09DF809301946764837
:1012B000774B9847AA238DF80A307348734B9847A9
:1012C0000346002BF9D09DF80A3019466E48704B42
:1012D0009847B0238DF80B306B486C4B984703460A
:1012E000002BF9D09DF80B3019466748684B98479A
:1012F0006548664B98470346002BF9D001217B20B7
:10130000644B9847F7205F4B984730238DF80C309B
:101310005D485E4B98470346002BF9D09DF80C3092
:10132000194659485A4B98475748584B98470346CF
:10133000002BF9D001217B20564B9847C020514B00
:10134000984725238DF80D304F48504B984703465A
:10135000002BF9D09DF80D3019464B484C4B98475F
:1013600049484A4B98470346002BF9D001217B207E
:10137000484B9847C120434B984711238DF80E30B6
:101380004148424B98470346002BF9D09DF80E3058
:1013900019463D483E4B98473B483C4B98470346CF
:1013A000002BF9D001217B203A4B9847C520354BC3
:1013B00098475C238DF80F303348344B98470346E9
:1013C000002BF9D09DF80F3019462F48304B984725
:1013D0004C238DF810302C482C4B98470346002B9B
:1013E000F9D09DF8103019462748294B98472648D0
:1013F000264B98470346002BF9D001217B20254B33
:101400009847C7201F4B984794238DF811301E48EA
:101410001E4B98470346002BF9D09DF81130194612
:1014200019481B4B98471848184B98470346002B00
:10143000F9D001217B20174B9847E820114B9847A2
:1014400085238DF812301048104B98470346002B27
:10145000F9D09DF8123019460B480D4B98470123DF
:101460008DF813300848094B98470346002BF9D0F4
:101470009DF8133019460448054B984778238DF89A
:10148000143009E05D0D400000800040190D40005F
:10149000350D4000890C40003448354B98470346D1
:1014A000002BF9D09DF8143019463048314B98473D
:1014B0002E482F4B98470346002BF9D001217B2063
:1014C0002D4B9847EA202D4B984700238DF8153077
:1014D0002648274B98470346002BF9D09DF8153036
:1014E00019462248234B984700238DF816301F4891
:1014F0001F4B98470346002BF9D09DF8163019462C
:101500001A481C4B98471948194B98470346002B1B
:10151000F9D001217B20184B98473A20174B984768
:1015200055238DF817301148114B98470346002B6F
:10153000F9D09DF8173019460C480E4B98470B48C8
:101540000B4B98470346002BF9D001217B200A4B17
:10155000984700200A4B9847F0234FF4A0720021CF
:101560000020084CA04700BF06B010BD008000401E
:10157000190D4000350D4000890C40005D0D400004
:10158000AD174000E90F40002DE9F0411120224B3A
:10159000984701217B20214B9847214B98470346D0
:1015A00019464FF000020B4614464FEA840848EAF9
:1015B00093789F003B4644465B1844EB02042601A7
:1015C00046EA13761D01ED1A66EB04066B1946EB2D
:1015D00006041D4626462946324641F22B734FF03B
:1015E0000004CD1842EB0406284631460D4C41F26A
:1015F0002C724FF00003A04703460C4618460A4BD6
:1016000098472920044B984701217B20034B98479A
:1016100000BFBDE8F08100BF5D0D4000890C4000B7
:10162000790C400001974300010040202DE9F04F64
:1016300083B0012118204F4B98474F4B98470346E2
:1016400019464FF000020B461446A0000190019885
:1016500040EA937001909B000093DDE900345B1831
:1016600044EB0204DB1844EB04041946224641F221
:101670002B734FF0000411EB030B42EB040C5846A4
:1016800061463E4C41F22C724FF00003A0470346E6
:101690000C4618463A4B984700211820354B98477E
:1016A000354B9847034619464FF000020B46144647
:1016B0004FEA840A4AEA937A4FEA83094B46544632
:1016C0005B1844EB0204DB1844EB04041946224681
:1016D00041F22B734FF0000411EB030942EB040AB3
:1016E00048465146254C41F22C724FF00003A0476A
:1016F00003460C461846224B9847012118201D4BE3
:1017000098471D4B9847034619464FF000020B4679
:1017100014464FEA840848EA93789F003B464446C3
:101720005B1844EB0204260146EA13761D01ED1A0C
:1017300066EB04066B1946EB06041D462646294651
:10174000324641F22B734FF00004CD1842EB0406F1
:1017500028463146094C41F22C724FF00003A04755
:1017600003460C461846064B984700BF03B0BDE839
:10177000F08F00BF890C4000790C400001974300B6
:101780000100402008B5054B9847054B9847054B8D
:101790009847054B984700BF08BD00BFE9104000BF
:1017A0002D16400089154000DD11400000B585B0C0
:1017B00003468DF8073048238DF80F309DF8073029
:1017C00083F005038DF807309DF8073003F001031F
:1017D000002B05D09DF80F3023F040038DF80F301B
:1017E0009DF8073003F00203002B05D09DF80F3061
:1017F00063F07F038DF80F309DF8073003F004038A
:10180000002B05D09DF80F3043F020038DF80F30EA
:101810003620104B98479DF80F308DF80E300E484B
:101820000E4B98470346002BF9D09DF80E30194611
:1018300009480B4B98470848084B98470346002B2C
:10184000F9D001217B20074B984700BF05B05DF818
:1018500004FB00BF5D0D400000800040190D4000FA
:10186000350D4000890C400082B0EFF310830193E6
:10187000019B002B0CBF01230023DBB2009372B647
:10188000BFF35F8F034B00221A70009B184602B013
:10189000704700BFC800402082B00190019B002B20
:1018A00014BF01230023DBB2184602B070470000CA
:1018B00000B583B001900198074B98470346002B71
:1018C00005D0064B01221A70BFF35F8F62B600BFCE
:1018D00003B05DF804FB00BF99184000C800402029
:1018E00082B001900B46ADF8023000BF02B07047E5
:1018F00082B00190019B1B6B184602B0704782B00A
:101900000190019BDB6A184602B0704700B585B0B4
:1019100003468DF807309DF807300B4AD35CFF2B48
:1019200000D1FEE7094B984703909DF80730064A1F
:10193000D25C0132D1B2044AD1540398044B984787
:1019400000BF05B05DF804FB38B9432069184000BA
:10195000B118400082B00190019B072B25D801A24D
:1019600052F823F0851940008B194000911940006E
:10197000971940009B1940009F194000A31940008F
:10198000A71940004FF4FA4310E04FF400430DE074
:101990004FF400430AE0074B08E0074B06E0074B13
:1019A00004E0064B02E0054B00E00023184602B0BD
:1019B000704700BF00093D0000127A00001BB7000D
:1019C00008B50620044B9847024613469B00134473
:1019D0009A001344184608BD5519400008B5024B3B
:1019E00098470346184608BDC119400082B00190CF
:1019F000019B074A934201D1012306E0019B054A5E
:101A0000934201D1002300E00023184602B0704742
:101A10000040064000C0034082B00190019B074A8D
:101A2000934201D1282306E0019B054A934201D14C
:101A30001D2300E01D23184602B0704700400640F9
:101A400000C0034084B00190009100230393009BE9
:101A5000DB7C002B02D04FF0004200E00022009B14
:101A60005968009B9B68B1FBF3F3013B1B029BB2DF
:101A70001A43009B1B7C1B0603F070631A43009BF8
:101A80005B7C1B0703F040531A43009BDB68134346
:101A900043F400030393019B039A5A60009B1B7D50
:101AA000002B02D04FF0807200E00022009B1B68E8
:101AB0001A43009B5B7D002B02D04FF0007300E0C7
:101AC00000231A43019B9A60009B9B7D1B0203F439
:101AD000407343F00C02019BC3F8942000BF04B094
:101AE0007047000000B587B003900B460192ADF837
:101AF0000A30BDF80A3019460398204B9847002356
:101B00000593039B1B6E0593BDF80A30012202FA70
:101B100003F3DB43059A13400593019B1B78002BCD
:101B200005D0BDF80A30012202FA03F300E00023D9
:101B3000059A13430593039B059A1A66039B5B6DF5
:101B40000593BDF80A305B00032202FA03F3DB437E
:101B5000059A13400593019B5B781A46BDF80A303D
:101B60005B0002FA03F31A46059B13430593039B9C
:101B7000059A5A6500BF07B05DF804FBE118400004
:101B800000B583B00190019B00221A60124B984768
:101B90000246019B5A60019B104A9A60019B4FF4D8
:101BA0008022DA60019B02221A74019B01225A747E
:101BB000019B01229A74019B0022DA74019B01228D
:101BC0001A75019B01225A75019B01229A7500BF6B
:101BD00003B05DF804FB00BFDD194000808D5B00A1
:101BE00082B00190019B00221A70019B01225A7061
:101BF00000BF02B07047000000B585B001900091B1
:101C000001981D4B9847034603F08073B3F1807F22
:101C100001D119232CE0019B01221A60009901983F
:101C2000164B9847019B164A93420DD1002303930C
:101C300007E0144A039B002142F82310039B013361
:101C40000393039B0F2BF4D9019B0F4A93420ED1B0
:101C50000023039308E00B4A039B1033002142F852
:101C60002310039B01330393039B0F2BF3D9002312
:101C7000184605B05DF804FBF1184000451A400015
:101C800000C0034040B943200040064000B583B087
:101C9000034600918DF807309DF807300A491A0174
:101CA000009B134451F82330002B08D09DF80730D7
:101CB00005491A01009B134451F82330984700BF8F
:101CC00003B05DF804FB00BF40B9432010B586B0F7
:101CD00001900198274B984704460198264B984756
:101CE0000346234003930198244B98470490002314
:101CF000059339E0059B0B2B0FD80122059B02FAB7
:101D000003F31A46039B1340002B2AD0049BDBB23B
:101D1000059918461A4B984723E0059B0E2B10D8BF
:101D2000059B0C33012202FA03F31A46039B13406E
:101D3000002B16D0049BDBB205991846104B984730
:101D40000FE0059B0F33012202FA03F31A46039BAF
:101D50001340002B05D0049BDBB205991846084BB5
:101D60009847059B01330593059B0F2BC2D900BFF4
:101D700006B010BDF1184000FF184000ED194000FA
:101D80008D1C400008B50248024B984700BF08BDB3
:101D900000C00340CD1C400008B50248024B9847E4
:101DA00000BF08BD00400640CD1C400000B585B016
:101DB00001900198064B984703900398054B98476C
:101DC0000220054B984700BF05B05DF804FB00BF3B
:101DD000191A40006D7443000D19400082B0019043
:101DE000019B03F10802019B5A60019B4FF0FF32F7
:101DF0009A60019B03F10802019BDA60019B03F1E9
:101E00000802019B1A61019B00221A6000BF02B008
:101E1000704782B00190019B00221A6100BF02B09E
:101E2000704784B001900091019B5B680393009B15
:101E3000039A5A60039B9A68009B9A60039B9B6875
:101E4000009A5A60039B009A9A60009B019A1A615B
:101E5000019B1B685A1C019B1A6000BF04B07047AD
:101E600084B001900091009B1B680293029BB3F128
:101E7000FF3F03D1019B1B6903930CE0019B0833D7
:101E8000039302E0039B5B680393039B5B681A6800
:101E9000029B9A42F6D9039B5A68009B5A60009BAA
:101EA0005B68009A9A60009B039A9A60039B009A71
:101EB0005A60009B019A1A61019B1B685A1C019B86
:101EC0001A6000BF04B0704784B00190019B1B6989
:101ED0000393019B5B68019A92689A60019B9B68DF
:101EE000019A52685A60039B5A68019B9A4203D137
:101EF000019B9A68039B5A60019B00221A61039B15
:101F00001B685A1E039B1A60039B1B68184604B08B
:101F10007047000084B0039002910192039B043B40
:101F20000393039B4FF080721A60039B043B03935F
:101F3000029A039B1A60039B043B03930B4A039B87
:101F40001A60039B143B0393019A039B1A60039B43
:101F5000043B0393039B6FF002021A60039B203B38
:101F60000393039B184604B0704700BF711F4000E5
:101F700082B00E4B1B68B3F1FF3F0BD04FF08003D4
:101F800072B683F31188BFF36F8FBFF34F8F62B6C2
:101F90000193FEE74FF0800372B683F31188BFF31D
:101FA0006F8FBFF34F8F62B60093FEE70C004020A7
:101FB000064B19680868B0E8F04F80F30988BFF352
:101FC0006F8F4FF0000080F311887047C0DA402017
:101FD00000BF704706480068006880F3088862B652
:101FE00061B6BFF34F8FBFF36F8F00DF00BF00BF3D
:101FF00008ED00E000B585B02E4B0393039B1B78E2
:10200000DBB20293039BFF221A70039B1B78DBB2A7
:102010008DF807309DF80730DBB223F07F03DAB28A
:10202000254B1A70254B07221A600BE0234B1B68C7
:10203000013B224A13609DF80730DBB25B00DBB244
:102040008DF807309DF80730DBB203F08003802B5A
:10205000ECD01A4B1B681B02184A1360174B1B6805
:1020600003F4E063154A1360029BDAB2039B1A7013
:10207000134A134B1B6843F460031360104A104B60
:102080001B6843F0604313600E4B98470E4B0022D1
:102090001A600E4B98470E4A0D4B1B6843F04043A5
:1020A00013600C4B98470C4B98470023184605B01B
:1020B0005DF804FB00E400E0B00A4020B40A4020D0
:1020C00020ED00E0352240000C004020512240006D
:1020D00034EF00E0D51F4000711F400082B04FF088
:1020E000800372B683F31188BFF36F8FBFF34F8FF6
:1020F00062B601930E4B1B6801330D4A13600C4B03
:102100001B68012B10D10B4B1B68DBB2002B0BD0D3
:102110004FF0800372B683F31188BFF36F8FBFF364
:102120004F8F62B60093FEE700BF02B0704700BF5A
:102130000C00402004ED00E082B0104B1B68002B27
:102140000BD14FF0800372B683F31188BFF36F8F0A
:10215000BFF34F8F62B60193FEE7084B1B68013B4C
:10216000064A1360054B1B68002B04D10023009323
:10217000009B83F3118800BF02B070470C00402021
:10218000EFF30980BFF36F8F154B1A681EF0100F25
:1021900008BF20ED108A20E9F04F10604DF8043D93
:1021A0004FF0800072B680F31188BFF34F8FBFF3FA
:1021B0006F8F62B601F0C4F94FF0000080F3118810
:1021C00008BC19680868B0E8F04F1EF0100F08BF8F
:1021D000B0EC108A80F30988BFF36F8F704700BF9F
:1021E000C0DA402000BF704700B585B0EFF3118220
:1021F0004FF0800372B683F31188BFF36F8FBFF384
:102200004F8F62B603920293084B98470346002B08
:1022100003D0074B4FF080521A6000230193019BBB
:1022200083F3118800BF05B05DF804FBA5334000BF
:1022300004ED00E0034B044A1A60044B07221A60C5
:1022400000BF704714E000E07FA9030010E000E049
:10225000DFF80C00016841F470010160704700BFB5
:1022600088ED00E084B0EFF305830393039B0F2B0D
:1022700017D9174A039B13441B788DF80B30154B65
:102280001B789DF80B209A420BD24FF0800372B658
:1022900083F31188BFF36F8FBFF34F8F62B6019343
:1022A000FEE70D4B1B6803F4E0620C4B1B689A427F
:1022B0000BD94FF0800372B683F31188BFF36F8F91
:1022C000BFF34F8F62B60093FEE700BF04B07047C4
:1022D000F0E300E0B00A40200CED00E0B40A40203A
:1022E00000B585B0019000230393019B03F0070321
:1022F000002B04D0019B23F00703083301931A4BF2
:1023000098471A4B1B68002B05D1194B23F0070384
:102310001A46164B1A60174B1A68019B13444CF669
:10232000F772934213D8134B1A68019B1A44114B4E
:102330001B689A420BD90D4B1A680E4B1B6813444D
:1023400003930C4B1A68019B13440A4A13600A4B0F
:102350009847039B002B01D1084B9847039B1846D5
:1023600005B05DF804FB00BF41324000BCDA4020FC
:10237000C00A4020B8DA402055324000E5824300D0
:1023800084B00190019B002B0BD04FF0800372B6FC
:1023900083F31188BFF36F8FBFF34F8F62B6039340
:1023A000FEE700BF04B0704700B585B00190009112
:1023B000019B0393039B002B0BD14FF0800372B65C
:1023C00083F31188BFF36F8FBFF34F8F62B6029311
:1023D000FEE7284B9847039B1A68039BDB6B039926
:1023E000096C01FB03F31A44039B5A60039B002210
:1023F0009A63039B1A68039B9A60039B1A68039B6A
:10240000DB6B013B0399096C01FB03F31A44039B4B
:10241000DA60039B4FF0FF325A64039B4FF0FF32A8
:102420009A64009B002B14D1039B1B69002B1AD0CC
:10243000039B10331846104B98470346012B12D1CB
:102440000E4B4FF080521A60BFF34F8FBFF36F8F68
:1024500009E0039B10331846094B9847039B24332C
:102460001846074B9847074B98470123184605B075
:102470005DF804FBDD204000A537400004ED00E0DE
:10248000DD1D40003921400000B58BB00390029162
:1024900013468DF8073000230893039B002B0BD1C4
:1024A0004FF0800372B683F31188BFF36F8FBFF3D1
:1024B0004F8F62B60693FEE7029B002B02D10023EA
:1024C000099305E0039B029A02FB03F3013309938E
:1024D000099B583318461D4B98470790079B002BC4
:1024E0001FD0029B002B03D1079B079A1A6004E0C0
:1024F000079B03F15802079B1A60079B039ADA6354
:10250000079B029A1A6401210798114B9847079B71
:102510009DF8072083F85020079B00225A65079BEF
:102520000893089B002B0BD14FF0800372B683F306
:102530001188BFF36F8FBFF34F8F62B60593FEE72D
:10254000089B18460BB05DF804FB00BFE122400079
:10255000A923400000B58FB003900291019200932F
:1025600000230D93039B0C930C9B002B0BD14FF07E
:10257000800372B683F31188BFF36F8FBFF34F8F61
:1025800062B60A93FEE7029B002B03D10C9B1B6CE7
:10259000002B01D1012300E00023002B0BD14FF0D1
:1025A000800372B683F31188BFF36F8FBFF34F8F31
:1025B00062B60993FEE7009B022B03D10C9BDB6BF9
:1025C000012B01D1012300E00023002B0BD14FF0A0
:1025D000800372B683F31188BFF36F8FBFF34F8F01
:1025E00062B60893FEE7614B98470346002B02D181
:1025F000019B002B01D1012300E00023002B0BD114
:102600004FF0800372B683F31188BFF36F8FBFF36F
:102610004F8F62B60793FEE7554B98470C9B9A6B1A
:102620000C9BDB6B9A4202D3009B022B3DD1009A9C
:1026300002990C984F4B98470B900C9B5B6D002BAD
:102640000FD000990C984C4B98470346012B28D18A
:102650004A4B4FF080521A60BFF34F8FBFF36F8F1A
:102660001FE00C9B5B6A002B10D00C9B2433184698
:10267000434B98470346012B13D1404B4FF08052F8
:102680001A60BFF34F8FBFF36F8F0AE00B9B002BD5
:1026900007D03A4B4FF080521A60BFF34F8FBFF311
:1026A0006F8F384B984701235BE0019B002B03D1D0
:1026B000344B9847002354E00D9B002B05D105AB0C
:1026C0001846314B984701230D932E4B98472F4BBB
:1026D0009847274B98470C9B5B6CB3F1FF3F02D1A7
:1026E0000C9B00225A640C9B9B6CB3F1FF3F02D100
:1026F0000C9B00229A64234B984701AA05AB114614
:102700001846234B98470346002B24D10C98214BA5
:1027100098470346002B18D00C9B1033019A1146A2
:1027200018461D4B98470C981C4B98471C4B9847D4
:102730000346002B7FF470AF104B4FF080521A60AD
:10274000BFF34F8FBFF36F8F66E70C98134B98471B
:10275000134B984760E70C98104B9847104B9847DD
:10276000002318460FB05DF804FB00BFC93C4000D1
:10277000DD204000492B40005D2E400004ED00E0CC
:10278000A5374000392140007138400041324000F7
:10279000B1384000712D400049364000752C400092
:1027A0005532400000B58FB0039002910192009322
:1027B000039B0C930C9B002B0BD14FF0800372B644
:1027C00083F31188BFF36F8FBFF34F8F62B60A9305
:1027D000FEE7029B002B03D10C9B1B6C002B01D14D
:1027E000012300E00023002B0BD14FF0800372B6D1
:1027F00083F31188BFF36F8FBFF34F8F62B60993D6
:10280000FEE7009B022B03D10C9BDB6B012B01D15C
:10281000012300E00023002B0BD14FF0800372B6A0
:1028200083F31188BFF36F8FBFF34F8F62B60893A6
:10283000FEE72F4B9847EFF311824FF0800372B6FB
:1028400083F31188BFF36F8FBFF34F8F62B6079288
:102850000693079B0B930C9B9A6B0C9BDB6B9A422A
:1028600002D3009B022B36D1009A02990C98214B7F
:1028700098470C9B9B6CB3F1FF3F24D10C9B5B6D85
:10288000002B0DD000990C981B4B98470346012B49
:102890001ED1019B002B1BD0019B01221A6017E067
:1028A0000C9B5B6A002B13D00C9B24331846134BF4
:1028B00098470346002B0BD0019B002B08D0019BAF
:1028C00001221A6004E00C9B9B6C5A1C0C9B9A64BE
:1028D00001230D9301E000230D930B9B0593059BB2
:1028E00083F311880D9B18460FB05DF804FB00BF01
:1028F00065224000492B40005D2E4000A537400076
:1029000000B58DB0039002910192009300230B93C8
:10291000039B0A930A9B002B0BD14FF0800372B6E6
:1029200083F31188BFF36F8FBFF34F8F62B60893A5
:10293000FEE7029B002B03D10A9B1B6C002B01D1ED
:10294000012300E00023002B0BD14FF0800372B66F
:1029500083F31188BFF36F8FBFF34F8F62B6079376
:10296000FEE76A4B98470346002B02D1019B002BE0
:1029700001D1012300E00023002B0BD14FF0800395
:1029800072B683F31188BFF36F8FBFF34F8F62B6B8
:102990000693FEE75E4B98470A9B9B6B002B47D044
:1029A0000A9BDB68099302990A985A4B9847009B47
:1029B000002B22D10A9B9B6B5A1E0A9B9A630A9B8F
:1029C0001B68002B04D1544B984702460A9B5A605F
:1029D0000A9B1B69002B27D00A9B103318464F4BCC
:1029E00098470346012B1FD14D4B4FF080521A6080
:1029F000BFF34F8FBFF36F8F16E00A9B099ADA601F
:102A00000A9B5B6A002B0FD00A9B24331846434B6A
:102A100098470346002B07D0414B4FF080521A6075
:102A2000BFF34F8FBFF36F8F3E4B9847012368E092
:102A3000019B002B03D13B4B9847002361E00B9B8C
:102A4000002B05D104AB1846374B984701230B9355
:102A5000344B9847354B98472D4B98470A9B5B6CF6
:102A6000B3F1FF3F02D10A9B00225A640A9B9B6C80
:102A7000B3F1FF3F02D10A9B00229A64294B984789
:102A800001AA04AB11461846294B98470346002B70
:102A900031D10A98274B98470346002B25D00A9B33
:102AA0001B68002B08D11A4B98470A9B5B68184695
:102AB000214B98471B4B98470A9B2433019A114698
:102AC00018461E4B98470A981D4B98471D4B984730
:102AD0000346002B7FF45EAF114B4FF080521A601B
:102AE000BFF34F8FBFF36F8F54E70A98144B98478B
:102AF000144B98474EE70A98114B9847114B98474B
:102B0000002318460DB05DF804FB00BFC93C40002F
:102B1000DD204000252C4000053F4000A537400047
:102B200004ED00E03921400071384000413240009E
:102B3000B13840003D2D4000FD3C4000493640008A
:102B4000752C40005532400000B587B003900291CB
:102B5000019200230593039B1B6C002B0DD1039B5B
:102B60001B68002B50D1039B5B6818462B4B984782
:102B70000590039B00225A6046E0019B002B19D16F
:102B8000039B9868039B1B6C1A460299244B984739
:102B9000039B9A68039B1B6C1A44039B9A60039BDC
:102BA0009A68039B5B689A422ED3039B1A68039B27
:102BB0009A6029E0039BD868039B1B6C1A46029914
:102BC000174B9847039BDA68039B1B6C5B421A44C4
:102BD000039BDA60039BDA68039B1B689A4207D267
:102BE000039B5A68039B1B6C5B421A44039BDA608D
:102BF000019B022B08D1039B9B6B002B04D0039BF2
:102C00009B6B5A1E039B9A63039B9B6B5A1C039BF3
:102C10009A63059B184607B05DF804FBF13D400040
:102C200059A0430000B583B001900091019B1B6C3B
:102C3000002B18D0019BDA68019B1B6C1A44019B86
:102C4000DA60019BDA68019B5B689A4203D3019BBF
:102C50001A68019BDA60019BD968019B1B6C1A46BC
:102C60000098034B984700BF03B05DF804FB00BF1A
:102C700059A0430000B583B001902B4B984720E04A
:102C8000019B5B6D002B09D000210198274B9847D1
:102C90000346012B10D1264B98470DE0019B5B6A40
:102CA000002B13D0019B24331846224B9847034630
:102CB000002B01D01E4B9847019B9B6C5A1E019B19
:102CC0009A64019B9B6C002BDADC00E000BF019B47
:102CD0004FF0FF329A64184B9847134B984712E015
:102CE000019B1B69002B13D0019B10331846114B1D
:102CF00098470346002B01D00D4B9847019B5B6C16
:102D00005A1E019B5A64019B5B6C002BE8DC00E0BF
:102D100000BF019B4FF0FF325A64074B984700BF3A
:102D200003B05DF804FB00BFDD2040005D2E4000D5
:102D300081394000A53740003921400000B585B0F9
:102D40000190094B9847019B9B6B002B02D10123FB
:102D5000039301E000230393044B9847039B184619
:102D600005B05DF804FB00BFDD20400039214000C4
:102D700000B585B001900A4B9847019B9A6B019B67
:102D8000DB6B9A4202D10123039301E000230393FA
:102D9000044B9847039B184605B05DF804FB00BF41
:102DA000DD2040003921400084B0019000910023D3
:102DB000039314E00D4A039B52F83330002B0BD1E0
:102DC0000A49039B009A41F83320084A039BDB0021
:102DD0001344019A5A6005E0039B01330393039B5C
:102DE000072BE7D900BF04B0704700BFC0B943202C
:102DF00000B587B0039002910192039B0593134B9A
:102E00009847059B5B6CB3F1FF3F02D1059B002205
:102E10005A64059B9B6CB3F1FF3F02D1059B0022D6
:102E20009A640B4B9847059B9B6B002B06D1059B27
:102E30002433019A02991846064B98470598064B89
:102E4000984700BF07B05DF804FB00BFDD204000DD
:102E500039214000F9364000752C400000B587B09C
:102E600001900091019B5B6D049300230593049BEB
:102E7000002B0BD14FF0800372B683F31188BFF3A0
:102E80006F8FBFF34F8F62B60393FEE7049B9A6B7D
:102E9000049BDB6B9A420BD34FF0800372B683F333
:102EA0001188BFF36F8FBFF34F8F62B60293FEE7B7
:102EB000049B9A6B049BDB6B9A421FD201AB009A76
:102EC00019460498104B98470590049B9B6CB3F1EE
:102ED000FF3F0ED1049B5B6A002B0FD0049B243371
:102EE00018460A4B98470346002B07D00123059349
:102EF00004E0049B9B6C5A1C049B9A64059B184637
:102F000007B05DF804FB00BF492B4000A537400027
:102F100010B58CB00590049102931346ADF80E30B5
:102F2000059B002B0BD14FF0800372B683F3118801
:102F3000BFF36F8FBFF34F8F62B60893FEE70E9B10
:102F4000042B0BD94FF0800372B683F31188BFF3C3
:102F50006F8FBFF34F8F62B60793FEE7BDF80E3059
:102F6000109918464F4B98470A900A9B002B7CD02B
:102F70000A9B1A6BBDF80E106FF040430B449B0088
:102F800013440993099B23F007030993099B03F05A
:102F90000703002B0BD04FF0800372B683F3118828
:102FA000BFF36F8FBFF34F8F62B60693FEE7BDF896
:102FB0000E300093119B0E9A04990A983A4CA04740
:102FC000029A05990998394B984702460A9B1A605C
:102FD0000F9B002B02D00F9B0A9A1A60344B984724
:102FE000344B1B680133334A1360334B1B68002B8F
:102FF00009D1314A0A9B13602E4B1B68012B0FD15C
:103000002E4B98470CE02E4B1B68002B08D12A4B07
:103010001B68DA6A0E9B9A4202D8274A0A9B136001
:10302000284B1B680133274A1360264B1A680A9BFA
:103030001A640A9BDB6A01229A40234B1B681343E4
:10304000214A13600A9BDA6A13469B0013449B00D3
:103050001E4A1A440A9B0433194610461C4B9847D3
:1030600001230B931B4B984702E04FF0FF330B9368
:103070000B9B012B11D1124B1B68002B0DD00E4B5B
:103080001B68DA6A0E9B9A4207D2134B4FF08052AC
:103090001A60BFF34F8FBFF36F8F0B9B18460CB0B6
:1030A00010BD00BFE93B4000C1394000151F400082
:1030B000DD20400098DB4020C0DA40206D3A40001F
:1030C000A4DB4020B4DB4020A0DB4020C4DA402059
:1030D000231E40003921400004ED00E000B587B018
:1030E000019000230593019B002B31D0204B1B68DE
:1030F000002B0BD04FF0800372B683F31188BFF31F
:103100006F8FBFF34F8F62B60393FEE7194B98475B
:10311000194B1A68019B13440493184B1B68043322
:103120001846174B98470346002B0BD1134B1B68CF
:10313000DB6A012202FA03F3DA43124B1B681340E5
:10314000104A13600498104B9847104B984705900D
:10315000059B002B07D10E4B4FF080521A60BFF336
:103160004F8FBFF36F8F00BF07B05DF804FB00BF48
:10317000BCDB4020413240009CDB4020C0DA4020D4
:10318000C91E4000A0DB4020793B40005532400082
:1031900004ED00E010B588B00023039300230293F0
:1031A000002301930023009300234FF480621C4905
:1031B0001C481D4CA0470790079B012B02D11B4BBD
:1031C00098470790079B012B17D14FF0800372B6E9
:1031D00083F31188BFF36F8FBFF34F8F62B60693EF
:1031E000134B4FF0FF321A60124B01221A60124B40
:1031F00000221A60114B98470EE0079B002B0BD161
:103200004FF0800372B683F31188BFF36F8FBFF363
:103210004F8F62B60593FEE700BF08B010BD00BF38
:1032200044DA430091394000112F4000253F40000F
:10323000B8DB4020A4DB40209CDB4020F51F400091
:10324000034B1B680133024A136000BF704700BF85
:10325000BCDB402000B585B0002303933E4B1B68C8
:10326000002B0BD14FF0800372B683F31188BFF3AC
:103270006F8FBFF34F8F62B60193FEE7374B9847CE
:10328000354B1B68013B344A1360334B1B68002BE2
:103290005BD1334B1B68002B57D02EE0314BDB68E2
:1032A000DB680293029B183318462F4B9847029B0A
:1032B000043318462C4B9847029BDB6A01229A4044
:1032C0002A4B1B681343294A1360029BDA6A134690
:1032D0009B0013449B00264A1A44029B0433194660
:1032E0001046244B9847029BDA6A234B1B68DB6A23
:1032F0009A4202D3214B01221A601A4B1B68002B01
:10330000CCD11F4B1B68002B11D00CE01D4B9847F4
:103310000346002B02D0194B01221A60184B1B6880
:10332000013B174A1360164B1B68002BEED1134B61
:103330001B68012B09D101230393134B4FF08052DB
:103340001A60BFF34F8FBFF36F8F104B9847039BEB
:10335000184605B05DF804FBBCDB4020DD204000D2
:1033600098DB402058DB4020C91E4000A0DB4020F5
:10337000C4DA4020231E4000C0DA4020ACDB4020ED
:10338000A8DB4020A533400004ED00E039214000D7
:1033900082B0034B1B680193019B184602B0704733
:1033A0009CDB402000B587B000230593554B1B687C
:1033B000002B40F09580544B1B680133524A136038
:1033C000514B1B680493049B002B21D14F4B1B686E
:1033D0001B68002B0BD04FF0800372B683F311886B
:1033E000BFF36F8FBFF34F8F62B60093FEE7474B7B
:1033F0001B680393464B1B68444A1360444A039B73
:103400001360444B1B680133424A1360424B984798
:10341000424B1B68049A9A424DD33C4B1B681B6875
:10342000002B01D1012300E00023002B04D03B4BF3
:103430004FF0FF321A603EE0344B1B68DB68DB68FC
:103440000293029B5B680193049A019B9A4203D208
:10345000324A019B13602EE0029B04331846304B26
:103460009847029B9B6A002B04D0029B1833184696
:103470002B4B9847029BDB6A01229A40294B1B6821
:103480001343284A1360029BDA6A13469B001344D5
:103490009B00254A1A44029B043319461046234BCD
:1034A0009847029BDA6A224B1B68DB6A9A42B4D3C4
:1034B00001230593B1E71E4B1B68DA6A1A491346CC
:1034C0009B0013449B000B441B68012B01D9012373
:1034D0000593184B1B68002B09D1174B984706E042
:1034E000144B1B680133134A1360134B9847134B5B
:1034F0001B68002B01D001230593059B184607B0DC
:103500005DF804FBBCDB40209CDB402050DB40200E
:1035100054DB4020B0DB4020893C4000B8DB402039
:10352000C91E4000A0DB4020C4DA4020231E40001A
:10353000C0DA4020A8DB4020E1824300ACDB402021
:1035400000B589B03A4B1B68002B03D0394B0122E0
:103550001A6069E0374B00221A60374B1B681B6BFF
:1035600007934FF0A5330693079B1A68069B9A4270
:1035700011D1079B04331A68069B9A420BD1079B13
:1035800008331A68069B9A4205D1079B0C331A68C8
:10359000069B9A4208D0284B1A68274B1B68343385
:1035A00019461046254B9847254B1B680393039BF0
:1035B000B3FA83F38DF80B309DF80B30C3F11F0382
:1035C00005932049059A13469B0013449B000B4426
:1035D0001B68002B0BD14FF0800372B683F3118868
:1035E000BFF36F8FBFF34F8F62B60193FEE7059A6B
:1035F00013469B0013449B00124A13440493049BFC
:103600005B685A68049B5A60049B5A68049B0833A1
:103610009A4204D1049B5B685A68049B5A60049BDD
:103620005B68DB68044A136000BF09B05DF804FB07
:10363000BCDB4020ACDB4020C0DA4020C582430028
:10364000A0DB4020C4DA402000B585B00190009195
:10365000019B002B0BD14FF0800372B683F31188CE
:10366000BFF36F8FBFF34F8F62B60293FEE71A4B23
:103670001B68183319460198184B9847164B1B685E
:1036800004331846164B98470346002B0BD1124BB8
:103690001B68DB6A012202FA03F3DA43114B1B6851
:1036A0001340104A1360009BB3F1FF3F07D10A4B50
:1036B0001B68043319460C480C4B984707E00C4B29
:1036C0001A68009B1344039303980A4B984700BF62
:1036D00005B05DF804FB00BFC0DA4020611E400069
:1036E000C91E4000A0DB402084DB4020231E400098
:1036F0009CDB4020793B400000B587B003900291ED
:103700000192039B002B0BD14FF0800372B683F321
:103710001188BFF36F8FBFF34F8F62B60493FEE73C
:10372000194B1B68183319460398184B9847164BCA
:103730001B6804331846164B98470346002B0BD1E1
:10374000114B1B68DB6A012202FA03F3DA43114BC7
:103750001B6813400F4A1360019B012B07D10A4BD2
:103760001B68043319460C48084B984707E00B4B7D
:103770001A68029B134405930598094B984700BFAC
:1037800007B05DF804FB00BFC0DA4020231E4000F4
:10379000C91E4000A0DB402084DB40209CDB402091
:1037A000793B400000B587B00190019BDB68DB6886
:1037B0000493049B002B0BD14FF0800372B683F36C
:1037C0001188BFF36F8FBFF34F8F62B60393FEE78D
:1037D000049B183318461E4B98471E4B1B68002B42
:1037E0001CD1049B04331846194B9847049BDB6A91
:1037F00001229A40184B1B681343174A1360049B1D
:10380000DA6A13469B0013449B00144A1A44049B33
:10381000043319461046124B984705E0049B1833B1
:10382000194610480E4B9847049BDA6A0E4B1B68EA
:10383000DB6A9A4205D9012305930C4B01221A60D9
:1038400001E000230593059B184607B05DF804FBD3
:10385000C91E4000BCDB4020A0DB4020C4DA402071
:10386000231E400058DB4020C0DA4020ACDB402063
:1038700084B00190019B002B0BD14FF0800372B6F6
:1038800083F31188BFF36F8FBFF34F8F62B603933B
:10389000FEE7054B1A68019B1A60044B1A68019BEE
:1038A0005A6000BF04B07047B0DB40209CDB402072
:1038B00000B587B001900091019B002B0BD14FF018
:1038C000800372B683F31188BFF36F8FBFF34F8FFE
:1038D00062B60393FEE7009B002B0BD14FF08003F1
:1038E00072B683F31188BFF36F8FBFF34F8F62B649
:1038F0000293FEE71D4B98471D4B1B680493009BEA
:103900001B68B3F1FF3F02D10023059326E0019B22
:103910001A68184B1B689A4207D0019B5A68049B8F
:103920009A4202D80123059318E0019B5B68049A30
:10393000D21A009B1B689A420ED2009B1A68019B08
:103940005968049BCB1A1A44009B1A6001980A4BD1
:1039500098470023059301E001230593074B9847FF
:10396000059B184607B05DF804FB00BFDD20400052
:103970009CDB4020B0DB4020713840003921400002
:10398000024B01221A6000BF704700BFACDB402031
:1039900000B583B00190074B9847074B1B68012B7C
:1039A000F9D9064B4FF080521A60BFF34F8FBFF327
:1039B0006F8FF0E7ED3A4000C4DA402004ED00E0FC
:1039C00000B587B003900291019200930023059304
:1039D00012E0029A059B13441978039A059B13443D
:1039E00034330A461A70029A059B13441B78002B45
:1039F00006D0059B01330593059B092BE9D900E00F
:103A000000BF039B002283F83D20019B042B01D9BA
:103A100004230193039B019ADA62039B019A9A643F
:103A2000039B0022DA64039B043318460E4B98472D
:103A3000039B183318460C4B9847039B039A1A6153
:103A4000019BC3F10502039B9A61039B039A5A628F
:103A5000039B00221A65039B002283F8542000BFB9
:103A600007B05DF804FB00BF131E400000B583B033
:103A7000002301930CE0019A13469B0013449B0022
:103A8000114A13441846114B9847019B0133019387
:103A9000019B042BEFD90E480C4B98470D480B4B5C
:103AA00098470D48094B98470C48084B98470C48D5
:103AB000064B98470B4B064A1A600B4B054A1A6097
:103AC00000BF03B05DF804FBC4DA4020DD1D4000F8
:103AD00028DB40203CDB402058DB40206CDB4020D2
:103AE00084DB402050DB402054DB402000B583B015
:103AF00028E0184B9847184B1B68002B0CBF01237C
:103B00000023DBB20193154B9847019B002B19D181
:103B1000134B9847104BDB68DB680093009B043322
:103B20001846104B9847104B1B68013B0E4A136018
:103B30000E4B1B68013B0D4A13600D4B98470098D4
:103B40000C4B9847094B1B68002BD2D100BF03B028
:103B50005DF804FB413240006CDB402055324000F0
:103B6000DD204000C91E400098DB402080DB402063
:103B700039214000653C400000B583B00190144BF2
:103B80001B68019A5A60134B1B68019A9A4209D22A
:103B9000114B1A680E4B1B680433194610460F4B25
:103BA000984710E00E4B1A68094B1B6804331946FE
:103BB00010460A4B98470B4B1B68019A9A4202D257
:103BC000084A019B136000BF03B05DF804FB00BF0F
:103BD000C0DA40209CDB402054DB4020611E4000C6
:103BE00050DB4020B8DB402000B585B00346009193
:103BF000ADF80630009B002B07D1BDF806309B00C6
:103C00001846154B9847034600E0009B0293029B21
:103C1000002B0ED05820104B98470390039B002B8D
:103C200003D0039B029A1A6305E002980B4B984756
:103C300001E000230393039B002B08D0039B186B28
:103C4000BDF806309B001A46A521054B9847039BFB
:103C5000184605B05DF804FBE122400081234000D6
:103C60008DA1430000B583B00190019B1B6B1846EA
:103C7000044B98470198034B984700BF03B05DF889
:103C800004FB00BF8123400082B00D4B1B681B6802
:103C9000002B01D1012300E00023002B04D0094BAD
:103CA0004FF0FF321A6008E0054B1B68DB68DB68E9
:103CB0000193019B5B68034A136000BF02B0704729
:103CC00050DB4020B8DB402082B00A4B1B68002B41
:103CD00002D10123019308E0074B1B68002B02D19E
:103CE0000223019301E000230193019B184602B0D7
:103CF000704700BFA4DB4020BCDB402000B585B08E
:103D00000190019B0393019B002B62D0039BDA6A15
:103D1000324B1B68DB6A9A425BD2039B9B69002B88
:103D200006DB2E4B1B68DB6AC3F10502039B9A611D
:103D3000039B5969039BDA6A13469B0013449B005B
:103D4000274A1344994201D1012300E00023002BAC
:103D50003AD0039B04331846224B98470346002B66
:103D600015D1039BDA6A1E4913469B0013449B003E
:103D70000B441B68002B0AD1039BDB6A012202FA69
:103D800003F3DA43184B1B681340174A1360134BB5
:103D90001B68DA6A039BDA62039BDB6A01229A40A2
:103DA000114B1B681343104A1360039BDA6A1346D6
:103DB0009B0013449B000A4A1A44039B0433194690
:103DC00010460A4B984704E0044B1B68DA6A039BD1
:103DD000DA6200BF05B05DF804FB00BFC0DA402026
:103DE000C4DA4020C91E4000A0DB4020231E400052
:103DF00000B587B00190019B049300230593019BBC
:103E0000002B70D03A4B1B68049A9A420BD04FF0AB
:103E1000800372B683F31188BFF36F8FBFF34F8FA8
:103E200062B60393FEE7049BDB6C002B0BD14FF0D3
:103E3000800372B683F31188BFF36F8FBFF34F8F88
:103E400062B60293FEE7049BDB6C5A1E049BDA64A5
:103E5000049BDA6A049B9B6C9A4244D0049BDB6C03
:103E6000002B40D1049B04331846224B984703464D
:103E7000002B15D1049BDA6A1F4913469B0013449B
:103E80009B000B441B68002B0AD1049BDB6A0122B8
:103E900002FA03F3DA43194B1B681340174A136005
:103EA000049B9A6C049BDA62049BDB6AC3F10502F3
:103EB000049B9A61049BDB6A01229A400F4B1B68AA
:103EC00013430E4A1360049BDA6A13469B001344A3
:103ED0009B00094A1A44049B043319461046084BB8
:103EE000984701230593059B184607B05DF804FB2E
:103EF000C0DA4020C91E4000C4DA4020A0DB4020C8
:103F0000231E4000064B1B68002B04D0044B1B688B
:103F1000DA6C0132DA64024B1B681846704700BF46
:103F2000C0DA402010B586B000230593144B9847A3
:103F3000144B1B68002B0FD0002303930023029324
:103F4000002301930423009300234FF400620E49E1
:103F50000E480F4CA0470590059B002B0BD14FF04E
:103F6000800372B683F31188BFF36F8FBFF34F8F57
:103F700062B60493FEE7059B184606B010BD00BF6D
:103F8000E9444000F0DB40205CDA4300C1404000DF
:103F9000112F400010B58AB0039002910192009356
:103FA00000230993039B002B0BD14FF0800372B6C3
:103FB00083F31188BFF36F8FBFF34F8F62B60893FF
:103FC000FEE7184B1B68002B27D0029B0493019B34
:103FD0000593039B0693029B052B16DC124B984717
:103FE0000346022B08D10F4B186804A900230C9A32
:103FF0000E4CA047099010E00A4B186804A9002352
:1040000000220A4CA047099007E0064B186804A953
:104010000023009A064CA0470990099B18460AB055
:1040200010BD00BFF0DB4020C93C400055254000DA
:10403000A527400010B588B0039002911C4B1B6867
:10404000DB68DB680793079B04331846194B9847D6
:10405000079BDB69012B23D1079B9A69039BD1182E
:10406000039B029A0798144CA0470346012B17D1D3
:10407000002300930023039A002107980F4CA047C8
:104080000690069B002B0BD14FF0800372B683F392
:104090001188BFF36F8FBFF34F8F62B60593FEE7B2
:1040A000079B5B6A0798984700BF08B010BD00BF28
:1040B000E8DB4020C91E40001D424000953F400003
:1040C00000B585B0019002AB1846054B98470390A8
:1040D000029B19460398034B9847034B9847F2E716
:1040E00099414000ED404000A542400000B585B038
:1040F00001900091204B984702AB18461F4B984700
:104100000390029B002B30D1009B002B0AD1019A17
:10411000039B9A4206D81A4B984703990198194B6A
:10412000984724E0009B002B08D0174B1B681B68A6
:10413000002B0CBF01230023DBB20093134B186844
:10414000019A039BD31A009A1946114B98470C4BBE
:1041500098470346002B0AD10E4B4FF080521A604D
:10416000BFF34F8FBFF36F8F01E0054B984700BF40
:1041700005B05DF804FB00BF41324000D94140006A
:104180005532400035404000ECDB4020F0DB402061
:10419000F12D400004ED00E084B001900D4B1B6850
:1041A0001B68002B0CBF01230023DBB21A46019BC6
:1041B0001A60019B1B68002B05D1064B1B68DB684E
:1041C0001B68039301E000230393039B184604B08C
:1041D000704700BFE8DB402000B585B001900C4B74
:1041E000984703900B4B1B68039A9A4205D20A4BDF
:1041F0009847019B01221A6002E0019B00221A608D
:10420000044A039B1360039B184605B05DF804FB4A
:1042100091334000F4DB40201D44400000B587B0DE
:10422000039002910192009300230593039B029A4D
:104230005A60039B039A1A61029A019B9A4212D810
:10424000019A009BD21A039B9B699A4202D30123D5
:1042500005931BE0104B1A68039B04331946104664
:104260000E4B984712E0019A009B9A4206D2029A9E
:10427000009B9A4202D30123059307E0084B1A687A
:10428000039B043319461046044B9847059B184678
:1042900007B05DF804FB00BFECDB4020611E40006E
:1042A000E8DB402010B58EB09BE0039B002B19DAB1
:1042B00003AB04330D930D9B002B0BD14FF0800308
:1042C00072B683F31188BFF36F8FBFF34F8F62B65F
:1042D0000993FEE70D9B1B680D9A50680D9A926832
:1042E00011469847039B002B7BDB059B0C930C9B93
:1042F0005B69002B04D00C9B04331846404B984755
:1043000002AB18463F4B98470B90039B092B67D88D
:1043100001A252F823F000BF414340004143400056
:1043200041434000E34340009F434000D9434000E5
:104330004143400041434000E34340009F4340006D
:10434000049A0C9B9B69D118049B0B9A0C982E4CD9
:10435000A0470346012B44D10C9B5B6A0C989847FD
:104360000C9BDB69012B3CD1049A0C9B9B691A4482
:1043700000230093002300210C98244CA0470A90AE
:104380000A9B002B2DD14FF0800372B683F3118866
:10439000BFF36F8FBFF34F8F62B60893FEE7049AA7
:1043A0000C9B9A610C9B9B69002B0BD14FF08003F7
:1043B00072B683F31188BFF36F8FBFF34F8F62B66E
:1043C0000793FEE70C9B9A690B9BD1180B9B0B9AEA
:1043D0000C980D4CA04704E00C980D4B984700E05A
:1043E00000BF0C4B186803A9002300220A4CA04709
:1043F0000346002B7FF459AF00BF0EB010BD00BFC5
:10440000C91E4000D94140001D424000953F400078
:1044100081234000F0DB40200129400010B588B026
:1044200046E02C4B1B68DB681B680793294B1B6815
:10443000DB68DB680693069B04331846264B9847D7
:10444000069B5B6A06989847069BDB69012B2FD178
:10445000069B9A69079B13440593059A079B9A420A
:104460000ED9069B059A5A60069B069A1A61194B4B
:104470001A68069B043319461046184B984717E0F4
:10448000002300930023079A00210698144CA047AC
:104490000490049B002B0BD14FF0800372B683F382
:1044A0001188BFF36F8FBFF34F8F62B60293FEE7A1
:1044B000084B1B681B68002BB3D1064B1B6803938A
:1044C000084B1B68034A1360064A039B136000BF36
:1044D00008B010BDE8DB4020C91E4000611E40004E
:1044E000953F4000ECDB402000B583B01C4B984763
:1044F0001C4B1B68002B2DD11B481C4B98471C489C
:104500001A4B98471B4B184A1A601B4B184A1A60E3
:10451000002210210520194B98470246114B1A60C2
:10452000104B1B68002B0BD14FF0800372B683F346
:104530001188BFF36F8FBFF34F8F62B60193FEE711
:10454000084B1B68002B05D0064B1B680C4918460E
:104550000C4B98470C4B984700BF03B05DF804FB29
:10456000DD204000F0DB4020C0DB4020DD1D4000AE
:10457000D4DB4020E8DB4020ECDB402089244000F5
:1045800064DA4300A92D40003921400000B583B012
:104590000190019B002B02D1064B98470190019B93
:1045A000002B01D1002301E0019B5B6C184603B096
:1045B0005DF804FB79FE410000B583B00190019BDA
:1045C000002B02D1064B98470190019B002B01D193
:1045D000002301E0019B9B6C184603B05DF804FBCF
:1045E00079FE410000B583B00190019B002B02D100
:1045F000064B98470190019B002B01D1002301E05D
:10460000019B1B6D184603B05DF804FB79FE410069
:1046100000B583B00190019B002B02D1064B984757
:104620000190019B002B01D1002301E0019B5B6DF8
:10463000184603B05DF804FB79FE410008B5182167
:104640000248034B984700BF08BD00BF70BB432022
:10465000AB1D420010B584B001900091019B002B6E
:104660004ED0019B18462A4B984703900AE0039BC3
:104670001A68009B9A4245D0019B03991846254B26
:1046800098470390039B002BF1D1009B9B6B002B61
:104690000AD00098204B98470346002B04D0009B7B
:1046A0009B6B18461D4B9847009B019A9A63019B90
:1046B00018461B4B9847029002981A4B984703469E
:1046C00083F00103DBB2002B08D0029B4FF0000403
:1046D0001A462346144815498847FEE7029B002BDB
:1046E00012D0029B009A1A60019B1846084B98470B
:1046F0000246029B9A4208D10198084B984704E071
:1047000000BF02E000BF00E000BF04B010BD00BF6A
:10471000E1204200192142002DB940001D4B40000C
:10472000ED1E42003D1942006CDA4300551942006B
:1047300000B585B00190019B9B6B0293029B002BFF
:104740005BD0029BDB681A68019B9A422BD1029BCB
:104750001B7D03F00103DBB2002B04D0029A137D12
:104760006FF300031375029B1846264B98470246C9
:10477000029BDB689A4213D1029B1846224B984752
:104780000246029BDB689A420AD1029BDB681B68E7
:10479000DB69029AD268106800221721984702E06C
:1047A00002981A4B9847029BDB681A68019B9A4251
:1047B00002D1029B0022DA60029B1846114B9847F7
:1047C000039016E0039B1A68019B9A420BD1029B4F
:1047D000039918460E4B984703980E4B9847019B38
:1047E00000229A630AE0029B039918460A4B9847F5
:1047F0000390039B002BE5D100E000BF05B05DF8FE
:1048000004FB00BFE1204200FD2042001D4B4000A0
:10481000611F4200F52442001921420000B587B013
:104820000190019B002B00F08980019B9B6B0493FE
:10483000049B002B00F08480049B1B7D03F001038C
:10484000DBB2002B7ED1049BDB68002B05D0049BE0
:10485000DB681A68019B9A4276D0002104983F4B8E
:104860009847049B18463E4B9847059062E0059B8D
:104870001A68019B9A4257D1049BDB68002B1ED01B
:10488000049BDB681B68DB69049AD268106800220D
:1048900017219847049BDB681B6800220E211846ED
:1048A000304B984703468DF80F309DF80F30012BA1
:1048B0004CD1049BDB681B6818462B4B9847049B24
:1048C000059ADA60049BDB68002B41D0049BDB680F
:1048D0001B68DB69049AD268106800221621984789
:1048E000049B1B69002B03D0049B1B690498984709
:1048F000049BDB681B6800220D211846194B984762
:1049000003468DF80E309DF80E30012B22D1049B0A
:10491000DB681B681846144B9847049BDB681B68D0
:104920001846124B984713E0049B05991846104B04
:1049300098470590059B002B99D10CE000BF0AE039
:1049400000BF08E000BF06E000BF04E000BF02E0D7
:1049500000BF00E000BF07B05DF804FB2D4A400037
:10496000E12042006DA54000D98E4000594D400025
:104970001921420000B583B00190044A044901980E
:10498000044B984700BF03B05DF804FB19214200B7
:10499000E1204200894B400000B583B00190044AF9
:1049A00004490198044B984700BF03B05DF804FB2D
:1049B00043214200FD204200894B400000B585B0F4
:1049C000019000910198174B98470390039B002B8F
:1049D00001D1012321E0039BDB696A46182103987A
:1049E000984703468DF80B309DF80B30012B02D011
:1049F0009DF80B3011E06B461A460C2103980A4BC8
:104A0000984703468DF80B309DF80B30012B02D0F0
:104A10009DF80B3001E09DF80B30184605B05DF8AD
:104A200004FB00BFCD4A40006DA5400000B587B033
:104A300001900B468DF80330019B002B37D09DF879
:104A400003308DF81730019B1B7DC3F34003DBB2AD
:104A50001A469DF8173093422BD09DF8173003F07B
:104A60000103D9B2019A137D61F3410313750198D3
:104A7000134B98470490049B002B1DD0049BDB69CB
:104A80000022162104989847019BDB681B680022CE
:104A90000D2118460B4B984703468DF80F309DF8B3
:104AA0000F30012B07D10498074B984704E000BF53
:104AB00002E000BF00E000BF07B05DF804FB00BFEC
:104AC000CD4A40006DA54000D98E400082B00190D3
:104AD000019B002B01D1002308E0019BDB68002B28
:104AE00001D1002302E0019BDB681B68184602B07D
:104AF000704782B00190019B002B01D1002309E097
:104B0000019B1B7D03F00203DBB2002B14BF0123CA
:104B10000023DBB2184602B07047000000B585B034
:104B20000190019B1B7DC3F30013DBB28DF80F30A6
:104B3000019A137D43F010031375019B1B7D03F055
:104B40000803DBB2002B03D101980D4B984709E015
:104B5000019B1B7D03F00803DBB2002B02D0019800
:104B6000084B98479DF80F3003F00103D9B2019A22
:104B7000137D61F30413137500BF05B05DF804FBEA
:104B8000754940009949400000B589B003900291F1
:104B90000192039B1B7D03F00103DBB2002B40F06D
:104BA000BF80039BDB6807930023069301238DF8E6
:104BB000173001238DF81630079B002B1DD1039B66
:104BC0001B7D03F01003DBB2002B03D1069B002BEF
:104BD00040F0A8809DF8163083F00103DBB2002B73
:104BE00040F0A280039A029B10469847079000234A
:104BF0008DF8173000238DF81630069B002B05D159
:104C0000079B0693069B002B00F090809DF81730C1
:104C1000002B0AD0039A019B0799104698470790EA
:104C2000079A069B9A4200F0838001238DF8173083
:104C3000079B002B16D0079B1B6800211846414B91
:104C40009847034603F02003002B0DD1079B1B68F8
:104C500018463D4B9847034683F00103DBB2002B17
:104C600004D1A9E700BFA7E700BFA5E700BF039BEA
:104C7000DA68079B9A425DD0039BDB68002B1ED04D
:104C8000039BDB681B68DB69039AD268106800220B
:104C900017219847039BDB681B6800220E211846EA
:104CA0002A4B984703468DF815309DF81530012B97
:104CB00042D1039BDB681B681846254B9847039B32
:104CC000079ADA60039BDB681B68DB69039AD2688A
:104CD0001068002216219847039BDB681B6800229E
:104CE0000D211846194B984703468DF814309DF84E
:104CF0001430012B22D1039BDB681B681846154B2F
:104D00009847039BDB681B681846114B9847039B29
:104D10001B69002B13D0039B1B69039898470EE077
:104D200000BF0CE000BF0AE000BF08E000BF06E0E3
:104D300000BF04E000BF02E000BF00E000BF09B018
:104D40005DF804FBB9B7400025B540006DA54000F3
:104D5000D98E4000594D400000B585B00190019BAF
:104D60000393002302930DE0039B93F8343003F088
:104D70002003DBB2002B01D0039B02930398084B66
:104D800098470390039B002BEED1029B002B02D08F
:104D90000298044B984700BF05B05DF804FB00BFC4
:104DA00091A940006992400008B500210020024B03
:104DB000984700BF08BD00BF214F400010B588B024
:104DC0000190019BDB684A4A1360494B1B68DB6812
:104DD000002B00F08780464B1B681846454B9847D0
:104DE000434B1B6893F8503003F00403DBB2002BF5
:104DF0007AD13F4B1B6803AA114618463E4B984791
:104E000003468DF81F303A4B1B681846394B9847BC
:104E10003A4B00221A60364B1B689DF81A201A770D
:104E2000334B1B681B7F012B08D1314B1B68DC689F
:104E3000334B98470346C4F8843110E02C4B1B6871
:104E40001B78042B0BD1BDF91830002B07D0284B51
:104E50001B68DC682A4B98470346C4F88431244B0E
:104E60001B681B78012B07D1214B1B6803AA114635
:104E70001846244B984725E01D4B1B681B78022BD6
:104E800007D11B4B1B6803AA114618461E4B9847B7
:104E900018E0174B1B681B78042B07D1144B1B68B9
:104EA00003AA11461846194B98470BE0104B1B6894
:104EB0001B78032B06D10E4B1B6803AA114618461C
:104EC000134B98470A4B1B6818460A4B98479DF8A6
:104ED0001F30002B8DD1064B00221A60074B002299
:104EE0001A6002E000BF00E000BF08B010BD00BFC4
:104EF000F8DB4020C965400049024200FCDB40204D
:104F0000F102420011504000B15040007555400080
:104F1000595C4000014B1B6818467047F8DB402085
:104F200000B585B001900091019B002B1AD0019A29
:104F300092F8503043F0020382F850301E4B1A684A
:104F4000019B9A4202D11D4B00221A60009B002B4C
:104F500004D0019BDA6B009B9A4229D1019B00226D
:104F6000DA6325E00020164B984703901DE0039A72
:104F700092F8503043F0020382F850300E4B1A681A
:104F8000039B9A4202D10D4B00221A60009B002B1A
:104F900004D0039BDA6B009B9A4202D1039B002250
:104FA000DA630398064B98470390039B002BDED1EE
:104FB00000BF05B05DF804FBF8DB4020FCDB4020BF
:104FC0001502420082B00190019B002B01D1002309
:104FD00014E0019B1B78012B05D0019B1B78032B50
:104FE00001D000230AE0019B93F8463003F002034E
:104FF000DBB2002B14BF01230023DBB2184602B042
:1050000070470000014B1B6818467047FCDB4020CE
:1050100000B583B001900091019B5B6D002B1AD00D
:10502000019BB3F92420009BB3F900309A4207D1C9
:10503000019BB3F92620009BB3F902309A420AD0B3
:10504000019B586D009BB3F90010009BB3F902302F
:105050001A46144B9847009BB3F90020019B1A8411
:10506000009BB3F90220019B5A84019B1B7F012BFB
:1050700005D1019B1C3318460B4B984704E0019B5C
:105080001C331846094B9847019BB3F92020019B1C
:105090009A84019BB3F92220019BDA8400BF03B0FC
:1050A0005DF804FBF99240003D5D40004D63400017
:1050B00000B587B001900091009B9B7B012B08D12C
:1050C000019B93F8503003F00803DBB2002B40F053
:1050D0002582019B93F8503003F00803DBB2002BCC
:1050E00014D0019A92F850306FF3C30382F8503015
:1050F000019B00229A64019A92F850306FF30003EA
:1051000082F85030019B002283F82020019B9B6D88
:105110000593059B002B00F003820598864B98476A
:105120000246864B1A60854B1B68002B00F0FA8103
:10513000019B5B6A0493009B5A68019B5A62019B26
:1051400093F820300393009B9A7B019B83F82020E7
:10515000009B9B7B012B7BD1039B002B78D1784B51
:1051600098470246019B9A64009B5B680A2B25D1F5
:105170000A210598734B9847704B1B68DB696F4A8F
:10518000106800220B219847019B1C3318466E4B78
:1051900098470346002B40F0C781684B1B680022EC
:1051A00000211846694B9847019B1C331846664BF3
:1051B00098470346002B00F0AA81C6E1009B5B687C
:1051C0001B2B14D11B2105985E4B98475B4B1B682A
:1051D0000022142118465D4B9847019B1C3318464A
:1051E000594B98470346002B00F09181ADE1009B9D
:1051F0005B68092B10D100210598554B98470598FD
:10520000544B9847019B1C3318464F4B9847034615
:10521000002B00F07C8198E1009B5B680B2B10D188
:10522000002105984A4B984705984B4B9847019B9E
:105230001C331846444B98470346002B00F0678107
:1052400083E1009B5B68194605983E4B98475EE1F9
:10525000009B9B7B012B40F0FC80039B012B40F0CB
:10526000F880009B5B680A2B20D1344B1B68DB69FC
:10527000324A106800220C219847019B1C331846C3
:10528000314B98470346002B40F050812B4B1B6855
:105290000022012118462D4B9847019B1C331846CC
:1052A000294B98470346002B40F04281019B93F81D
:1052B000503003F00103DBB2002B51D1019B9B6CFA
:1052C0001846264B98470246019B1B8B9A4247D9AA
:1052D000019A92F8503043F0010382F85030009B5D
:1052E0005B680A2B40F0B380154B98470246019B40
:1052F000DA64124B1B68DB69104A106800220F2128
:105300009847019B1C3318460F4B98470346002BC8
:1053100040F01081094B1B680022042118460B4BFA
:105320009847019B1C331846074B98470346002BB0
:1053300000F08D8009E100BFCD4A4000FCDB402039
:10534000F1024200BD4940000D7340006DA54000D0
:105350002D4A400075494000994940001903420018
:10536000019B93F8503003F00103DBB2002B00F0F7
:10537000D080019BDB6C1846754B98470246019B19
:105380005B8B9A4240F2C580724B98470246019B64
:10539000DA64009B5B680A2B21D16F4B1B68DB69C9
:1053A0006D4A1068002210219847019B1C33184653
:1053B0006A4B98470346002B40F0BE80664B1B6843
:1053C000002205211846664B9847019B1C3318465E
:1053D000624B98470346002B00F09B80B5E0009B92
:1053E0005B68092B10D1002105985E4B9847059802
:1053F0005D4B9847019B1C331846584B9847034612
:10540000002B00F08680A0E0009B5B680B2B0FD187
:1054100000210598534B98470598544B9847019B9A
:105420001C3318464D4B98470346002B71D08CE037
:10543000009B5B68194605984D4B9847019B1C33B0
:105440001846464B98470346002B62D07DE000BFCC
:105450005FE0009B9B7B002B5CD1039B012B59D110
:10546000009B049A5A60009B5B680A2B44D13A4B1C
:105470001B68DB69384A106800220E219847019B9F
:105480001C331846354B98470346002B56D1019BD9
:1054900093F8503003F00103DBB2002B0ED12E4BFA
:1054A0001B680022032118462D4B9847019B1C3393
:1054B00018462A4B98470346002B41D1264B1B68C0
:1054C000002206211846264B9847019B1C3318469C
:1054D000224B98470346002B34D11F4B1B680022F8
:1054E000072118461E4B9847019B1C3318461B4B3F
:1054F00098470346002B27D1019B00229A64019A0A
:1055000092F850306FF3000382F8503002E000BF91
:1055100000E000BF104B00221A6016E000BF14E04C
:1055200000BF12E000BF10E000BF0EE000BF0CE0C3
:1055300000BF0AE000BF08E000BF06E000BF04E0D3
:1055400000BF02E000BF00E000BF07B05DF804FB51
:1055500019034200F1024200FCDB40200D734000C1
:105560006DA540002D4A4000754940009949400012
:10557000BD49400000B589B001900091009B9B7B24
:10558000012B08D1019B93F8503003F00803DBB2E4
:10559000002B40F03883019B93F8503003F0080350
:1055A000DBB2002B14D0019A92F850306FF3C30392
:1055B00082F85030019B00229A64019A92F8503090
:1055C0006FF3000382F85030019B002283F8202003
:1055D000019B93F820308DF81730009B9A7B019B3C
:1055E00083F82020009B5A68019B5A62019B9B6DA7
:1055F0000493049B002B00F008830498904B984779
:105600000246904B1A608F4B1B68002B00F0FF8204
:10561000009B9B7B002B02D0009B00229A81049868
:10562000874B98470246874B1A60864B1B68002BB6
:1056300000F0EF82009B9B7B012B40F087809DF860
:105640001730002B40F082807F4B98470246019B29
:105650009A64009B5B680A2B3CD100238DF80F30C5
:10566000784B1B68DB69774A10680DF10F0219212E
:1056700098470498754B98470346002B07D19DF82F
:105680000F3083F00103DBB2002B00F041826D4B41
:105690001B68DB696B4A106800220B219847019B4D
:1056A0001C3318466A4B98470346002B40F0B382E0
:1056B000644B1B68002200211846664B9847019BEB
:1056C0001C331846624B98470346002B00F020829B
:1056D00000BFB3E2009B5B68142B09D1009BB3F9B8
:1056E0000C309BB2013B9BB21AB2009B9A810FE235
:1056F000009B5B68132B09D1009BB3F90C309BB264
:1057000001339BB21AB2009B9A8101E2009B5B6855
:105710001B2B14D11B2104984F4B9847494B1B68F6
:105720000022142118464B4B9847019B1C33184606
:10573000474B98470346002B00F0EA817EE2009B2E
:105740005B6819460498444B9847E1E1009B9B7BBA
:10575000012B40F0F4809DF81730012B40F0EF80D2
:10576000019B93F8503003F00103DBB2002B7BD197
:10577000019B9B6C1846394B98470246019B1B8B3B
:105780009A4271D9019A92F8503043F0010382F89D
:1057900050302D4B98470246019BDA64009B5B68B2
:1057A0000A2B44D100238DF80E30264B1B68DB6991
:1057B000244A10680DF10E02192198479DF80E3009
:1057C000002B12D0049B1846254B98470346012B0B
:1057D0002DD904981D4B9847034683F00103DBB293
:1057E000194604981F4B984721E0164B1B68DB694C
:1057F000144A106800220F219847019B1C33184659
:10580000134B98470346002B40F007820D4B1B6853
:105810000022042118460F4B9847019B1C33184661
:105820000B4B98470346002B01D000BF06E2019ABC
:1058300092F8503043F0010382F850307AE100BF13
:10584000CD4A4000FCDB4020F1024200F34A400018
:105850000D7340006DA54000BD4940001903420092
:105860006D2142002D4A4000019B93F8503003F017
:105870000103DBB2002B00F05D81019BDB6C18465D
:10588000A44B98470246019B5B8B9A4240F252819F
:10589000A14B98470246019BDA64009B5B680A2B88
:1058A00021D19E4B1B68DB699C4A106800221021A5
:1058B0009847019B1C331846994B98470346002B89
:1058C00040F0AD81954B1B68002205211846954B91
:1058D0009847019B1C331846914B98470346002B71
:1058E00000F02881AAE1009B5B68142B09D1009B82
:1058F000B3F90C309BB2013B9BB21AB2009B9A8168
:1059000018E1009B5B68132B09D1009BB3F90C30A5
:105910009BB201339BB21AB2009B9A810AE1009BB1
:105920005B6819460498804B9847019B1C331846C6
:105930007B4B98470346002B00F0FC807EE1009BE8
:105940009B7B002B40F0F7809DF81730012B40F037
:10595000F280009B5B680A2B40F0CF8000238DF81B
:105960000D306E4B1B68DB696C4A10680DF10D023F
:10597000192198479DF80D3083F00103DBB2002B0D
:1059800048D0664B1B68DB69644A106800220E2110
:105990009847019B1C331846614B98470346002BE0
:1059A00040F03F81019B93F8503003F00103DBB2DC
:1059B000002B06D1594B1B68002203211846594B76
:1059C0009847019B1C331846554B98470346002BBC
:1059D00040F02981514B1B68002206211846514B8B
:1059E0009847019B1C3318464D4B98470346002BA4
:1059F00040F01B81494B1B68002207211846494B88
:105A00009847019B1C331846454B98470346002B8B
:105A100073D013E1049B1B7D03F00203DBB2002B68
:105A200054D0019B93F8503003F00103DBB2002BFC
:105A300006D0049B18463D4B98470346012B5CD883
:105A4000364B1B68DB69354A106800220E219847E7
:105A5000019B1C331846324B98470346002B40F0FD
:105A6000E6802E4B1B680022032118462D4B9847D9
:105A7000019B1C3318462A4B98470346002B40F0E5
:105A8000D880264B1B68002206211846254B9847D4
:105A9000019B1C331846224B98470346002B40F0CD
:105AA000CA801E4B1B680022072118461D4B9847D1
:105AB000019B1C3318461A4B98470346002B40F0B5
:105AC000BC800A210498184B984716E09DF80D30C9
:105AD000002B12D0049B1B7D03F00203DBB2002BD2
